{
  "_format": "hh-sol-artifact-1",
  "contractName": "BonusEscrow",
  "sourceName": "contracts/BonusEscrow.sol",
  "abi": [
    {
      "inputs": [],
      "stateMutability": "nonpayable",
      "type": "constructor"
    },
    {
      "anonymous": false,
      "inputs": [
        {
          "indexed": true,
          "internalType": "uint256",
          "name": "id",
          "type": "uint256"
        },
        {
          "indexed": true,
          "internalType": "address",
          "name": "acceptor",
          "type": "address"
        }
      ],
      "name": "BountyAccepted",
      "type": "event"
    },
    {
      "anonymous": false,
      "inputs": [
        {
          "indexed": true,
          "internalType": "uint256",
          "name": "id",
          "type": "uint256"
        }
      ],
      "name": "BountyCompleted",
      "type": "event"
    },
    {
      "anonymous": false,
      "inputs": [
        {
          "indexed": true,
          "internalType": "uint256",
          "name": "id",
          "type": "uint256"
        },
        {
          "indexed": true,
          "internalType": "address",
          "name": "creator",
          "type": "address"
        },
        {
          "indexed": false,
          "internalType": "string",
          "name": "title",
          "type": "string"
        },
        {
          "indexed": false,
          "internalType": "uint256",
          "name": "reward",
          "type": "uint256"
        }
      ],
      "name": "BountyCreated",
      "type": "event"
    },
    {
      "anonymous": false,
      "inputs": [
        {
          "indexed": true,
          "internalType": "uint256",
          "name": "id",
          "type": "uint256"
        },
        {
          "indexed": true,
          "internalType": "address",
          "name": "winner",
          "type": "address"
        }
      ],
      "name": "BountyPaid",
      "type": "event"
    },
    {
      "inputs": [
        {
          "internalType": "uint256",
          "name": "_bountyId",
          "type": "uint256"
        }
      ],
      "name": "acceptBounty",
      "outputs": [],
      "stateMutability": "nonpayable",
      "type": "function"
    },
    {
      "inputs": [
        {
          "internalType": "uint256",
          "name": "_bountyId",
          "type": "uint256"
        }
      ],
      "name": "completeBounty",
      "outputs": [],
      "stateMutability": "nonpayable",
      "type": "function"
    },
    {
      "inputs": [
        {
          "internalType": "string",
          "name": "_title",
          "type": "string"
        },
        {
          "internalType": "string",
          "name": "_description",
          "type": "string"
        }
      ],
      "name": "createBounty",
      "outputs": [],
      "stateMutability": "payable",
      "type": "function"
    },
    {
      "inputs": [],
      "name": "deposit",
      "outputs": [],
      "stateMutability": "payable",
      "type": "function"
    },
    {
      "inputs": [],
      "name": "getAllBounties",
      "outputs": [
        {
          "components": [
            {
              "internalType": "uint256",
              "name": "id",
              "type": "uint256"
            },
            {
              "internalType": "address",
              "name": "creator",
              "type": "address"
            },
            {
              "internalType": "string",
              "name": "title",
              "type": "string"
            },
            {
              "internalType": "string",
              "name": "description",
              "type": "string"
            },
            {
              "internalType": "uint256",
              "name": "reward",
              "type": "uint256"
            },
            {
              "internalType": "enum BonusEscrow.Status",
              "name": "status",
              "type": "uint8"
            }
          ],
          "internalType": "struct BonusEscrow.Bounty[]",
          "name": "",
          "type": "tuple[]"
        }
      ],
      "stateMutability": "view",
      "type": "function"
    },
    {
      "inputs": [
        {
          "internalType": "uint256",
          "name": "_bountyId",
          "type": "uint256"
        }
      ],
      "name": "getBountyStatus",
      "outputs": [
        {
          "internalType": "enum BonusEscrow.Status",
          "name": "",
          "type": "uint8"
        }
      ],
      "stateMutability": "view",
      "type": "function"
    },
    {
      "inputs": [],
      "name": "owner",
      "outputs": [
        {
          "internalType": "address",
          "name": "",
          "type": "address"
        }
      ],
      "stateMutability": "view",
      "type": "function"
    },
    {
      "inputs": [
        {
          "internalType": "uint256",
          "name": "_bountyId",
          "type": "uint256"
        },
        {
          "internalType": "address",
          "name": "_winner",
          "type": "address"
        }
      ],
      "name": "payBounty",
      "outputs": [],
      "stateMutability": "nonpayable",
      "type": "function"
    }
  ],
  "bytecode": "0x608060405234801561001057600080fd5b50336000806101000a81548173ffffffffffffffffffffffffffffffffffffffff021916908373ffffffffffffffffffffffffffffffffffffffff16021790555060006001819055506118a9806100686000396000f3fe60806040526004361061007b5760003560e01c8063cca0f8ab1161004e578063cca0f8ab1461011b578063d0e30db014610144578063e74205f61461014e578063f789493d1461018b5761007b565b8063139005ab146100805780636d2008a5146100a95780638da5cb5b146100c5578063ab643c07146100f0575b600080fd5b34801561008c57600080fd5b506100a760048036038101906100a29190610c0d565b6101b4565b005b6100c360048036038101906100be9190610d80565b6102ac565b005b3480156100d157600080fd5b506100da6104ac565b6040516100e79190610e39565b60405180910390f35b3480156100fc57600080fd5b506101056104d0565b60405161011291906110ba565b60405180910390f35b34801561012757600080fd5b50610142600480360381019061013d9190611108565b610777565b005b61014c61093e565b005b34801561015a57600080fd5b5061017560048036038101906101709190610c0d565b610940565b6040516101829190611157565b60405180910390f35b34801561019757600080fd5b506101b260048036038101906101ad9190610c0d565b6109b1565b005b600160038111156101c8576101c7610f1d565b5b6002600083815260200190815260200160002060050160009054906101000a900460ff1660038111156101fe576101fd610f1d565b5b1461023e576040517f08c379a0000000000000000000000000000000000000000000000000000000008152600401610235906111cf565b60405180910390fd5b600280600083815260200190815260200160002060050160006101000a81548160ff0219169083600381111561027757610276610f1d565b5b0217905550807f687045981c43db01605c41aa9dbf9296e20e6848624353e83979327e96434ccc60405160405180910390a250565b600034116102ef576040517f08c379a00000000000000000000000000000000000000000000000000000000081526004016102e69061123b565b60405180910390fd5b6000600160008154809291906103049061128a565b9190505590506040518060c001604052808281526020013373ffffffffffffffffffffffffffffffffffffffff1681526020018481526020018381526020013481526020016000600381111561035d5761035c610f1d565b5b815250600260008381526020019081526020016000206000820151816000015560208201518160010160006101000a81548173ffffffffffffffffffffffffffffffffffffffff021916908373ffffffffffffffffffffffffffffffffffffffff16021790555060408201518160020190816103d991906114de565b5060608201518160030190816103ef91906114de565b506080820151816004015560a08201518160050160006101000a81548160ff0219169083600381111561042557610424610f1d565b5b021790555090505060038190806001815401808255809150506001900390600052602060002001600090919091909150553373ffffffffffffffffffffffffffffffffffffffff16817f64b439309954f148e681118e8f6556d39f6204a461e3307190a6928618ff2655853460405161049f9291906115f8565b60405180910390a3505050565b60008054906101000a900473ffffffffffffffffffffffffffffffffffffffff1681565b6060600060038054905067ffffffffffffffff8111156104f3576104f2610c55565b5b60405190808252806020026020018201604052801561052c57816020015b610519610b65565b8152602001906001900390816105115790505b50905060005b60038054905081101561076f57600260006003838154811061055757610556611628565b5b906000526020600020015481526020019081526020016000206040518060c0016040529081600082015481526020016001820160009054906101000a900473ffffffffffffffffffffffffffffffffffffffff1673ffffffffffffffffffffffffffffffffffffffff1673ffffffffffffffffffffffffffffffffffffffff1681526020016002820180546105eb90611301565b80601f016020809104026020016040519081016040528092919081815260200182805461061790611301565b80156106645780601f1061063957610100808354040283529160200191610664565b820191906000526020600020905b81548152906001019060200180831161064757829003601f168201915b5050505050815260200160038201805461067d90611301565b80601f01602080910402602001604051908101604052809291908181526020018280546106a990611301565b80156106f65780601f106106cb576101008083540402835291602001916106f6565b820191906000526020600020905b8154815290600101906020018083116106d957829003601f168201915b50505050508152602001600482015481526020016005820160009054906101000a900460ff16600381111561072e5761072d610f1d565b5b60038111156107405761073f610f1d565b5b8152505082828151811061075757610756611628565b5b60200260200101819052508080600101915050610532565b508091505090565b6002600381111561078b5761078a610f1d565b5b6002600084815260200190815260200160002060050160009054906101000a900460ff1660038111156107c1576107c0610f1d565b5b14610801576040517f08c379a00000000000000000000000000000000000000000000000000000000081526004016107f8906116a3565b60405180910390fd5b600060026000848152602001908152602001600020600401541161085a576040517f08c379a00000000000000000000000000000000000000000000000000000000081526004016108519061170f565b60405180910390fd5b8073ffffffffffffffffffffffffffffffffffffffff166108fc60026000858152602001908152602001600020600401549081150290604051600060405180830381858888f193505050501580156108b6573d6000803e3d6000fd5b5060036002600084815260200190815260200160002060050160006101000a81548160ff021916908360038111156108f1576108f0610f1d565b5b02179055508073ffffffffffffffffffffffffffffffffffffffff16827fb36d901fccb6f536689eeb11a0ae1432218e5e52acaf7a8e7eb7693197fb3fae60405160405180910390a35050565b565b60006001548210610986576040517f08c379a000000000000000000000000000000000000000000000000000000000815260040161097d9061177b565b60405180910390fd5b6002600083815260200190815260200160002060050160009054906101000a900460ff169050919050565b3373ffffffffffffffffffffffffffffffffffffffff166002600083815260200190815260200160002060010160009054906101000a900473ffffffffffffffffffffffffffffffffffffffff1673ffffffffffffffffffffffffffffffffffffffff1614610a55576040517f08c379a0000000000000000000000000000000000000000000000000000000008152600401610a4c906117e7565b60405180910390fd5b60006003811115610a6957610a68610f1d565b5b6002600083815260200190815260200160002060050160009054906101000a900460ff166003811115610a9f57610a9e610f1d565b5b14610adf576040517f08c379a0000000000000000000000000000000000000000000000000000000008152600401610ad690611853565b60405180910390fd5b60016002600083815260200190815260200160002060050160006101000a81548160ff02191690836003811115610b1957610b18610f1d565b5b02179055503373ffffffffffffffffffffffffffffffffffffffff16817f10cf4effd391a16fea8d16ab98738933863c3117eba5ebca0cb226a1abf5c9c960405160405180910390a350565b6040518060c0016040528060008152602001600073ffffffffffffffffffffffffffffffffffffffff16815260200160608152602001606081526020016000815260200160006003811115610bbd57610bbc610f1d565b5b81525090565b6000604051905090565b600080fd5b600080fd5b6000819050919050565b610bea81610bd7565b8114610bf557600080fd5b50565b600081359050610c0781610be1565b92915050565b600060208284031215610c2357610c22610bcd565b5b6000610c3184828501610bf8565b91505092915050565b600080fd5b600080fd5b6000601f19601f8301169050919050565b7f4e487b7100000000000000000000000000000000000000000000000000000000600052604160045260246000fd5b610c8d82610c44565b810181811067ffffffffffffffff82111715610cac57610cab610c55565b5b80604052505050565b6000610cbf610bc3565b9050610ccb8282610c84565b919050565b600067ffffffffffffffff821115610ceb57610cea610c55565b5b610cf482610c44565b9050602081019050919050565b82818337600083830152505050565b6000610d23610d1e84610cd0565b610cb5565b905082815260208101848484011115610d3f57610d3e610c3f565b5b610d4a848285610d01565b509392505050565b600082601f830112610d6757610d66610c3a565b5b8135610d77848260208601610d10565b91505092915050565b60008060408385031215610d9757610d96610bcd565b5b600083013567ffffffffffffffff811115610db557610db4610bd2565b5b610dc185828601610d52565b925050602083013567ffffffffffffffff811115610de257610de1610bd2565b5b610dee85828601610d52565b9150509250929050565b600073ffffffffffffffffffffffffffffffffffffffff82169050919050565b6000610e2382610df8565b9050919050565b610e3381610e18565b82525050565b6000602082019050610e4e6000830184610e2a565b92915050565b600081519050919050565b600082825260208201905092915050565b6000819050602082019050919050565b610e8981610bd7565b82525050565b610e9881610e18565b82525050565b600081519050919050565b600082825260208201905092915050565b60005b83811015610ed8578082015181840152602081019050610ebd565b60008484015250505050565b6000610eef82610e9e565b610ef98185610ea9565b9350610f09818560208601610eba565b610f1281610c44565b840191505092915050565b7f4e487b7100000000000000000000000000000000000000000000000000000000600052602160045260246000fd5b60048110610f5d57610f5c610f1d565b5b50565b6000819050610f6e82610f4c565b919050565b6000610f7e82610f60565b9050919050565b610f8e81610f73565b82525050565b600060c083016000830151610fac6000860182610e80565b506020830151610fbf6020860182610e8f565b5060408301518482036040860152610fd78282610ee4565b91505060608301518482036060860152610ff18282610ee4565b91505060808301516110066080860182610e80565b5060a083015161101960a0860182610f85565b508091505092915050565b60006110308383610f94565b905092915050565b6000602082019050919050565b600061105082610e54565b61105a8185610e5f565b93508360208202850161106c85610e70565b8060005b858110156110a857848403895281516110898582611024565b945061109483611038565b925060208a01995050600181019050611070565b50829750879550505050505092915050565b600060208201905081810360008301526110d48184611045565b905092915050565b6110e581610e18565b81146110f057600080fd5b50565b600081359050611102816110dc565b92915050565b6000806040838503121561111f5761111e610bcd565b5b600061112d85828601610bf8565b925050602061113e858286016110f3565b9150509250929050565b61115181610f73565b82525050565b600060208201905061116c6000830184611148565b92915050565b600082825260208201905092915050565b7f426f756e7479206973206e6f7420616363657074656400000000000000000000600082015250565b60006111b9601683611172565b91506111c482611183565b602082019050919050565b600060208201905081810360008301526111e8816111ac565b9050919050565b7f426f756e7479206d757374206861766520612072657761726400000000000000600082015250565b6000611225601983611172565b9150611230826111ef565b602082019050919050565b6000602082019050818103600083015261125481611218565b9050919050565b7f4e487b7100000000000000000000000000000000000000000000000000000000600052601160045260246000fd5b600061129582610bd7565b91507fffffffffffffffffffffffffffffffffffffffffffffffffffffffffffffffff82036112c7576112c661125b565b5b600182019050919050565b7f4e487b7100000000000000000000000000000000000000000000000000000000600052602260045260246000fd5b6000600282049050600182168061131957607f821691505b60208210810361132c5761132b6112d2565b5b50919050565b60008190508160005260206000209050919050565b60006020601f8301049050919050565b600082821b905092915050565b6000600883026113947fffffffffffffffffffffffffffffffffffffffffffffffffffffffffffffffff82611357565b61139e8683611357565b95508019841693508086168417925050509392505050565b6000819050919050565b60006113db6113d66113d184610bd7565b6113b6565b610bd7565b9050919050565b6000819050919050565b6113f5836113c0565b611409611401826113e2565b848454611364565b825550505050565b600090565b61141e611411565b6114298184846113ec565b505050565b5b8181101561144d57611442600082611416565b60018101905061142f565b5050565b601f8211156114925761146381611332565b61146c84611347565b8101602085101561147b578190505b61148f61148785611347565b83018261142e565b50505b505050565b600082821c905092915050565b60006114b560001984600802611497565b1980831691505092915050565b60006114ce83836114a4565b9150826002028217905092915050565b6114e782610e9e565b67ffffffffffffffff811115611500576114ff610c55565b5b61150a8254611301565b611515828285611451565b600060209050601f8311600181146115485760008415611536578287015190505b61154085826114c2565b8655506115a8565b601f19841661155686611332565b60005b8281101561157e57848901518255600182019150602085019450602081019050611559565b8683101561159b5784890151611597601f8916826114a4565b8355505b6001600288020188555050505b505050505050565b60006115bb82610e9e565b6115c58185611172565b93506115d5818560208601610eba565b6115de81610c44565b840191505092915050565b6115f281610bd7565b82525050565b6000604082019050818103600083015261161281856115b0565b905061162160208301846115e9565b9392505050565b7f4e487b7100000000000000000000000000000000000000000000000000000000600052603260045260246000fd5b7f426f756e7479206973206e6f7420636f6d706c65746564000000000000000000600082015250565b600061168d601783611172565b915061169882611657565b602082019050919050565b600060208201905081810360008301526116bc81611680565b9050919050565b7f426f756e747920686173206e6f20726577617264000000000000000000000000600082015250565b60006116f9601483611172565b9150611704826116c3565b602082019050919050565b60006020820190508181036000830152611728816116ec565b9050919050565b7f426f756e747920646f6573206e6f742065786973740000000000000000000000600082015250565b6000611765601583611172565b91506117708261172f565b602082019050919050565b6000602082019050818103600083015261179481611758565b9050919050565b7f4f6e6c7920626f756e74792063726561746f722063616e206163636570740000600082015250565b60006117d1601e83611172565b91506117dc8261179b565b602082019050919050565b60006020820190508181036000830152611800816117c4565b9050919050565b7f426f756e7479206973206e6f74206f70656e0000000000000000000000000000600082015250565b600061183d601283611172565b915061184882611807565b602082019050919050565b6000602082019050818103600083015261186c81611830565b905091905056fea264697066735822122043da7c9923ed7259dd7a00ea152c80944f88a588f74ffa765d43c34ad1c54e9e64736f6c63430008180033",
  "linkReferences": {},
  "deployedLinkReferences": {}
}