{
  "_format": "hh-sol-artifact-1",
  "contractName": "BonusEscrow",
  "sourceName": "contracts/BonusEscrow.sol",
  "abi": [
    {
      "inputs": [],
      "stateMutability": "nonpayable",
      "type": "constructor"
    },
    {
      "anonymous": false,
      "inputs": [
        {
          "indexed": true,
          "internalType": "uint256",
          "name": "id",
          "type": "uint256"
        },
        {
          "indexed": true,
          "internalType": "address",
          "name": "acceptor",
          "type": "address"
        }
      ],
      "name": "BountyAccepted",
      "type": "event"
    },
    {
      "anonymous": false,
      "inputs": [
        {
          "indexed": true,
          "internalType": "uint256",
          "name": "id",
          "type": "uint256"
        },
        {
          "indexed": true,
          "internalType": "address",
          "name": "claimant",
          "type": "address"
        }
      ],
      "name": "BountyClaimed",
      "type": "event"
    },
    {
      "anonymous": false,
      "inputs": [
        {
          "indexed": true,
          "internalType": "uint256",
          "name": "id",
          "type": "uint256"
        }
      ],
      "name": "BountyCompleted",
      "type": "event"
    },
    {
      "anonymous": false,
      "inputs": [
        {
          "indexed": true,
          "internalType": "uint256",
          "name": "id",
          "type": "uint256"
        },
        {
          "indexed": true,
          "internalType": "address",
          "name": "creator",
          "type": "address"
        },
        {
          "indexed": false,
          "internalType": "string",
          "name": "title",
          "type": "string"
        },
        {
          "indexed": false,
          "internalType": "uint256",
          "name": "reward",
          "type": "uint256"
        }
      ],
      "name": "BountyCreated",
      "type": "event"
    },
    {
      "anonymous": false,
      "inputs": [
        {
          "indexed": true,
          "internalType": "uint256",
          "name": "id",
          "type": "uint256"
        },
        {
          "indexed": true,
          "internalType": "address",
          "name": "winner",
          "type": "address"
        }
      ],
      "name": "BountyPaid",
      "type": "event"
    },
    {
      "inputs": [
        {
          "internalType": "uint256",
          "name": "_bountyId",
          "type": "uint256"
        }
      ],
      "name": "acceptBounty",
      "outputs": [],
      "stateMutability": "nonpayable",
      "type": "function"
    },
    {
      "inputs": [
        {
          "internalType": "uint256",
          "name": "_bountyId",
          "type": "uint256"
        }
      ],
      "name": "claimBounty",
      "outputs": [],
      "stateMutability": "nonpayable",
      "type": "function"
    },
    {
      "inputs": [
        {
          "internalType": "uint256",
          "name": "_bountyId",
          "type": "uint256"
        }
      ],
      "name": "completeBounty",
      "outputs": [],
      "stateMutability": "nonpayable",
      "type": "function"
    },
    {
      "inputs": [
        {
          "internalType": "string",
          "name": "_title",
          "type": "string"
        },
        {
          "internalType": "string",
          "name": "_description",
          "type": "string"
        }
      ],
      "name": "createBounty",
      "outputs": [],
      "stateMutability": "payable",
      "type": "function"
    },
    {
      "inputs": [],
      "name": "deposit",
      "outputs": [],
      "stateMutability": "payable",
      "type": "function"
    },
    {
      "inputs": [],
      "name": "getAllBounties",
      "outputs": [
        {
          "components": [
            {
              "internalType": "uint256",
              "name": "id",
              "type": "uint256"
            },
            {
              "internalType": "address",
              "name": "creator",
              "type": "address"
            },
            {
              "internalType": "string",
              "name": "title",
              "type": "string"
            },
            {
              "internalType": "string",
              "name": "description",
              "type": "string"
            },
            {
              "internalType": "uint256",
              "name": "reward",
              "type": "uint256"
            },
            {
              "internalType": "enum BonusEscrow.Status",
              "name": "status",
              "type": "uint8"
            },
            {
              "internalType": "address",
              "name": "acceptor",
              "type": "address"
            }
          ],
          "internalType": "struct BonusEscrow.Bounty[]",
          "name": "",
          "type": "tuple[]"
        }
      ],
      "stateMutability": "view",
      "type": "function"
    },
    {
      "inputs": [
        {
          "internalType": "uint256",
          "name": "_bountyId",
          "type": "uint256"
        }
      ],
      "name": "getBountyStatus",
      "outputs": [
        {
          "internalType": "enum BonusEscrow.Status",
          "name": "",
          "type": "uint8"
        }
      ],
      "stateMutability": "view",
      "type": "function"
    },
    {
      "inputs": [],
      "name": "owner",
      "outputs": [
        {
          "internalType": "address",
          "name": "",
          "type": "address"
        }
      ],
      "stateMutability": "view",
      "type": "function"
    },
    {
      "inputs": [
        {
          "internalType": "uint256",
          "name": "_bountyId",
          "type": "uint256"
        },
        {
          "internalType": "address",
          "name": "_winner",
          "type": "address"
        }
      ],
      "name": "payBounty",
      "outputs": [],
      "stateMutability": "nonpayable",
      "type": "function"
    }
  ],
  "bytecode": "0x608060405234801561001057600080fd5b50336000806101000a81548173ffffffffffffffffffffffffffffffffffffffff021916908373ffffffffffffffffffffffffffffffffffffffff1602179055506000600181905550611d48806100686000396000f3fe6080604052600436106100865760003560e01c8063ab643c0711610059578063ab643c0714610124578063cca0f8ab1461014f578063d0e30db014610178578063e74205f614610182578063f789493d146101bf57610086565b8063139005ab1461008b57806344021ad7146100b45780636d2008a5146100dd5780638da5cb5b146100f9575b600080fd5b34801561009757600080fd5b506100b260048036038101906100ad9190610f9b565b6101e8565b005b3480156100c057600080fd5b506100db60048036038101906100d69190610f9b565b6102e1565b005b6100f760048036038101906100f2919061110e565b61052e565b005b34801561010557600080fd5b5061010e610792565b60405161011b91906111c7565b60405180910390f35b34801561013057600080fd5b506101396107b6565b604051610146919061145b565b60405180910390f35b34801561015b57600080fd5b50610176600480360381019061017191906114a9565b610ab3565b005b610180610c7a565b005b34801561018e57600080fd5b506101a960048036038101906101a49190610f9b565b610c7c565b6040516101b691906114f8565b60405180910390f35b3480156101cb57600080fd5b506101e660048036038101906101e19190610f9b565b610ced565b005b600260048111156101fc576101fb6112ab565b5b6002600083815260200190815260200160002060050160009054906101000a900460ff166004811115610232576102316112ab565b5b14610272576040517f08c379a000000000000000000000000000000000000000000000000000000000815260040161026990611570565b60405180910390fd5b60036002600083815260200190815260200160002060050160006101000a81548160ff021916908360048111156102ac576102ab6112ab565b5b0217905550807f687045981c43db01605c41aa9dbf9296e20e6848624353e83979327e96434ccc60405160405180910390a250565b6001548110610325576040517f08c379a000000000000000000000000000000000000000000000000000000000815260040161031c906115dc565b60405180910390fd5b60006004811115610339576103386112ab565b5b6002600083815260200190815260200160002060050160009054906101000a900460ff16600481111561036f5761036e6112ab565b5b146103af576040517f08c379a00000000000000000000000000000000000000000000000000000000081526004016103a690611648565b60405180910390fd5b3373ffffffffffffffffffffffffffffffffffffffff166002600083815260200190815260200160002060010160009054906101000a900473ffffffffffffffffffffffffffffffffffffffff1673ffffffffffffffffffffffffffffffffffffffff1603610453576040517f08c379a000000000000000000000000000000000000000000000000000000000815260040161044a906116da565b60405180910390fd5b60016002600083815260200190815260200160002060050160006101000a81548160ff0219169083600481111561048d5761048c6112ab565b5b0217905550336002600083815260200190815260200160002060050160016101000a81548173ffffffffffffffffffffffffffffffffffffffff021916908373ffffffffffffffffffffffffffffffffffffffff1602179055503373ffffffffffffffffffffffffffffffffffffffff16817fbf59c0d059a57ebf273b4b1643599fc4b48cf5effdd82113a740ed64d262ec9360405160405180910390a350565b60003411610571576040517f08c379a000000000000000000000000000000000000000000000000000000000815260040161056890611746565b60405180910390fd5b60006001600081548092919061058690611795565b9190505590506040518060e001604052808281526020013373ffffffffffffffffffffffffffffffffffffffff168152602001848152602001838152602001348152602001600060048111156105df576105de6112ab565b5b8152602001600073ffffffffffffffffffffffffffffffffffffffff16815250600260008381526020019081526020016000206000820151816000015560208201518160010160006101000a81548173ffffffffffffffffffffffffffffffffffffffff021916908373ffffffffffffffffffffffffffffffffffffffff160217905550604082015181600201908161067891906119e9565b50606082015181600301908161068e91906119e9565b506080820151816004015560a08201518160050160006101000a81548160ff021916908360048111156106c4576106c36112ab565b5b021790555060c08201518160050160016101000a81548173ffffffffffffffffffffffffffffffffffffffff021916908373ffffffffffffffffffffffffffffffffffffffff16021790555090505060038190806001815401808255809150506001900390600052602060002001600090919091909150553373ffffffffffffffffffffffffffffffffffffffff16817f64b439309954f148e681118e8f6556d39f6204a461e3307190a6928618ff26558534604051610785929190611b03565b60405180910390a3505050565b60008054906101000a900473ffffffffffffffffffffffffffffffffffffffff1681565b6060600060038054905067ffffffffffffffff8111156107d9576107d8610fe3565b5b60405190808252806020026020018201604052801561081257816020015b6107ff610ed6565b8152602001906001900390816107f75790505b50905060005b600380549050811015610aab57600260006003838154811061083d5761083c611b33565b5b906000526020600020015481526020019081526020016000206040518060e0016040529081600082015481526020016001820160009054906101000a900473ffffffffffffffffffffffffffffffffffffffff1673ffffffffffffffffffffffffffffffffffffffff1673ffffffffffffffffffffffffffffffffffffffff1681526020016002820180546108d19061180c565b80601f01602080910402602001604051908101604052809291908181526020018280546108fd9061180c565b801561094a5780601f1061091f5761010080835404028352916020019161094a565b820191906000526020600020905b81548152906001019060200180831161092d57829003601f168201915b505050505081526020016003820180546109639061180c565b80601f016020809104026020016040519081016040528092919081815260200182805461098f9061180c565b80156109dc5780601f106109b1576101008083540402835291602001916109dc565b820191906000526020600020905b8154815290600101906020018083116109bf57829003601f168201915b50505050508152602001600482015481526020016005820160009054906101000a900460ff166004811115610a1457610a136112ab565b5b6004811115610a2657610a256112ab565b5b81526020016005820160019054906101000a900473ffffffffffffffffffffffffffffffffffffffff1673ffffffffffffffffffffffffffffffffffffffff1673ffffffffffffffffffffffffffffffffffffffff1681525050828281518110610a9357610a92611b33565b5b60200260200101819052508080600101915050610818565b508091505090565b60036004811115610ac757610ac66112ab565b5b6002600084815260200190815260200160002060050160009054906101000a900460ff166004811115610afd57610afc6112ab565b5b14610b3d576040517f08c379a0000000000000000000000000000000000000000000000000000000008152600401610b3490611bae565b60405180910390fd5b6000600260008481526020019081526020016000206004015411610b96576040517f08c379a0000000000000000000000000000000000000000000000000000000008152600401610b8d90611c1a565b60405180910390fd5b8073ffffffffffffffffffffffffffffffffffffffff166108fc60026000858152602001908152602001600020600401549081150290604051600060405180830381858888f19350505050158015610bf2573d6000803e3d6000fd5b5060046002600084815260200190815260200160002060050160006101000a81548160ff02191690836004811115610c2d57610c2c6112ab565b5b02179055508073ffffffffffffffffffffffffffffffffffffffff16827fb36d901fccb6f536689eeb11a0ae1432218e5e52acaf7a8e7eb7693197fb3fae60405160405180910390a35050565b565b60006001548210610cc2576040517f08c379a0000000000000000000000000000000000000000000000000000000008152600401610cb9906115dc565b60405180910390fd5b6002600083815260200190815260200160002060050160009054906101000a900460ff169050919050565b3373ffffffffffffffffffffffffffffffffffffffff166002600083815260200190815260200160002060010160009054906101000a900473ffffffffffffffffffffffffffffffffffffffff1673ffffffffffffffffffffffffffffffffffffffff1614610d91576040517f08c379a0000000000000000000000000000000000000000000000000000000008152600401610d8890611c86565b60405180910390fd5b60016004811115610da557610da46112ab565b5b6002600083815260200190815260200160002060050160009054906101000a900460ff166004811115610ddb57610dda6112ab565b5b14610e1b576040517f08c379a0000000000000000000000000000000000000000000000000000000008152600401610e1290611cf2565b60405180910390fd5b600280600083815260200190815260200160002060050160006101000a81548160ff02191690836004811115610e5457610e536112ab565b5b02179055506002600082815260200190815260200160002060050160019054906101000a900473ffffffffffffffffffffffffffffffffffffffff1673ffffffffffffffffffffffffffffffffffffffff16817f10cf4effd391a16fea8d16ab98738933863c3117eba5ebca0cb226a1abf5c9c960405160405180910390a350565b6040518060e0016040528060008152602001600073ffffffffffffffffffffffffffffffffffffffff16815260200160608152602001606081526020016000815260200160006004811115610f2e57610f2d6112ab565b5b8152602001600073ffffffffffffffffffffffffffffffffffffffff1681525090565b6000604051905090565b600080fd5b600080fd5b6000819050919050565b610f7881610f65565b8114610f8357600080fd5b50565b600081359050610f9581610f6f565b92915050565b600060208284031215610fb157610fb0610f5b565b5b6000610fbf84828501610f86565b91505092915050565b600080fd5b600080fd5b6000601f19601f8301169050919050565b7f4e487b7100000000000000000000000000000000000000000000000000000000600052604160045260246000fd5b61101b82610fd2565b810181811067ffffffffffffffff8211171561103a57611039610fe3565b5b80604052505050565b600061104d610f51565b90506110598282611012565b919050565b600067ffffffffffffffff82111561107957611078610fe3565b5b61108282610fd2565b9050602081019050919050565b82818337600083830152505050565b60006110b16110ac8461105e565b611043565b9050828152602081018484840111156110cd576110cc610fcd565b5b6110d884828561108f565b509392505050565b600082601f8301126110f5576110f4610fc8565b5b813561110584826020860161109e565b91505092915050565b6000806040838503121561112557611124610f5b565b5b600083013567ffffffffffffffff81111561114357611142610f60565b5b61114f858286016110e0565b925050602083013567ffffffffffffffff8111156111705761116f610f60565b5b61117c858286016110e0565b9150509250929050565b600073ffffffffffffffffffffffffffffffffffffffff82169050919050565b60006111b182611186565b9050919050565b6111c1816111a6565b82525050565b60006020820190506111dc60008301846111b8565b92915050565b600081519050919050565b600082825260208201905092915050565b6000819050602082019050919050565b61121781610f65565b82525050565b611226816111a6565b82525050565b600081519050919050565b600082825260208201905092915050565b60005b8381101561126657808201518184015260208101905061124b565b60008484015250505050565b600061127d8261122c565b6112878185611237565b9350611297818560208601611248565b6112a081610fd2565b840191505092915050565b7f4e487b7100000000000000000000000000000000000000000000000000000000600052602160045260246000fd5b600581106112eb576112ea6112ab565b5b50565b60008190506112fc826112da565b919050565b600061130c826112ee565b9050919050565b61131c81611301565b82525050565b600060e08301600083015161133a600086018261120e565b50602083015161134d602086018261121d565b50604083015184820360408601526113658282611272565b9150506060830151848203606086015261137f8282611272565b9150506080830151611394608086018261120e565b5060a08301516113a760a0860182611313565b5060c08301516113ba60c086018261121d565b508091505092915050565b60006113d18383611322565b905092915050565b6000602082019050919050565b60006113f1826111e2565b6113fb81856111ed565b93508360208202850161140d856111fe565b8060005b85811015611449578484038952815161142a85826113c5565b9450611435836113d9565b925060208a01995050600181019050611411565b50829750879550505050505092915050565b6000602082019050818103600083015261147581846113e6565b905092915050565b611486816111a6565b811461149157600080fd5b50565b6000813590506114a38161147d565b92915050565b600080604083850312156114c0576114bf610f5b565b5b60006114ce85828601610f86565b92505060206114df85828601611494565b9150509250929050565b6114f281611301565b82525050565b600060208201905061150d60008301846114e9565b92915050565b600082825260208201905092915050565b7f426f756e7479206973206e6f7420616363657074656400000000000000000000600082015250565b600061155a601683611513565b915061156582611524565b602082019050919050565b600060208201905081810360008301526115898161154d565b9050919050565b7f426f756e747920646f6573206e6f742065786973740000000000000000000000600082015250565b60006115c6601583611513565b91506115d182611590565b602082019050919050565b600060208201905081810360008301526115f5816115b9565b9050919050565b7f426f756e7479206973206e6f74206f70656e20666f7220636c61696d696e6700600082015250565b6000611632601f83611513565b915061163d826115fc565b602082019050919050565b6000602082019050818103600083015261166181611625565b9050919050565b7f43726561746f722063616e6e6f7420636c61696d207468656972206f776e206260008201527f6f756e7479000000000000000000000000000000000000000000000000000000602082015250565b60006116c4602583611513565b91506116cf82611668565b604082019050919050565b600060208201905081810360008301526116f3816116b7565b9050919050565b7f426f756e7479206d757374206861766520612072657761726400000000000000600082015250565b6000611730601983611513565b915061173b826116fa565b602082019050919050565b6000602082019050818103600083015261175f81611723565b9050919050565b7f4e487b7100000000000000000000000000000000000000000000000000000000600052601160045260246000fd5b60006117a082610f65565b91507fffffffffffffffffffffffffffffffffffffffffffffffffffffffffffffffff82036117d2576117d1611766565b5b600182019050919050565b7f4e487b7100000000000000000000000000000000000000000000000000000000600052602260045260246000fd5b6000600282049050600182168061182457607f821691505b602082108103611837576118366117dd565b5b50919050565b60008190508160005260206000209050919050565b60006020601f8301049050919050565b600082821b905092915050565b60006008830261189f7fffffffffffffffffffffffffffffffffffffffffffffffffffffffffffffffff82611862565b6118a98683611862565b95508019841693508086168417925050509392505050565b6000819050919050565b60006118e66118e16118dc84610f65565b6118c1565b610f65565b9050919050565b6000819050919050565b611900836118cb565b61191461190c826118ed565b84845461186f565b825550505050565b600090565b61192961191c565b6119348184846118f7565b505050565b5b818110156119585761194d600082611921565b60018101905061193a565b5050565b601f82111561199d5761196e8161183d565b61197784611852565b81016020851015611986578190505b61199a61199285611852565b830182611939565b50505b505050565b600082821c905092915050565b60006119c0600019846008026119a2565b1980831691505092915050565b60006119d983836119af565b9150826002028217905092915050565b6119f28261122c565b67ffffffffffffffff811115611a0b57611a0a610fe3565b5b611a15825461180c565b611a2082828561195c565b600060209050601f831160018114611a535760008415611a41578287015190505b611a4b85826119cd565b865550611ab3565b601f198416611a618661183d565b60005b82811015611a8957848901518255600182019150602085019450602081019050611a64565b86831015611aa65784890151611aa2601f8916826119af565b8355505b6001600288020188555050505b505050505050565b6000611ac68261122c565b611ad08185611513565b9350611ae0818560208601611248565b611ae981610fd2565b840191505092915050565b611afd81610f65565b82525050565b60006040820190508181036000830152611b1d8185611abb565b9050611b2c6020830184611af4565b9392505050565b7f4e487b7100000000000000000000000000000000000000000000000000000000600052603260045260246000fd5b7f426f756e7479206973206e6f7420636f6d706c65746564000000000000000000600082015250565b6000611b98601783611513565b9150611ba382611b62565b602082019050919050565b60006020820190508181036000830152611bc781611b8b565b9050919050565b7f426f756e747920686173206e6f20726577617264000000000000000000000000600082015250565b6000611c04601483611513565b9150611c0f82611bce565b602082019050919050565b60006020820190508181036000830152611c3381611bf7565b9050919050565b7f4f6e6c7920626f756e74792063726561746f722063616e206163636570740000600082015250565b6000611c70601e83611513565b9150611c7b82611c3a565b602082019050919050565b60006020820190508181036000830152611c9f81611c63565b9050919050565b7f426f756e7479206973206e6f7420636c61696d65642079657400000000000000600082015250565b6000611cdc601983611513565b9150611ce782611ca6565b602082019050919050565b60006020820190508181036000830152611d0b81611ccf565b905091905056fea2646970667358221220d5a45e0e00d194cfdfb7d68beafbdbed54a6e9184047ead6622d7edcd3bc7c6464736f6c63430008180033",
  "linkReferences": {},
  "deployedLinkReferences": {}
}