{
  "_format": "hh-sol-artifact-1",
  "contractName": "BonusEscrow",
  "sourceName": "contracts/BonusEscrow.sol",
  "abi": [
    {
      "inputs": [],
      "stateMutability": "nonpayable",
      "type": "constructor"
    },
    {
      "anonymous": false,
      "inputs": [
        {
          "indexed": true,
          "internalType": "uint256",
          "name": "id",
          "type": "uint256"
        },
        {
          "indexed": true,
          "internalType": "address",
          "name": "claimant",
          "type": "address"
        },
        {
          "indexed": false,
          "internalType": "uint256",
          "name": "reward",
          "type": "uint256"
        }
      ],
      "name": "BountyApproved",
      "type": "event"
    },
    {
      "anonymous": false,
      "inputs": [
        {
          "indexed": true,
          "internalType": "uint256",
          "name": "id",
          "type": "uint256"
        },
        {
          "indexed": true,
          "internalType": "address",
          "name": "claimant",
          "type": "address"
        }
      ],
      "name": "BountyClaimed",
      "type": "event"
    },
    {
      "anonymous": false,
      "inputs": [
        {
          "indexed": true,
          "internalType": "uint256",
          "name": "id",
          "type": "uint256"
        },
        {
          "indexed": true,
          "internalType": "address",
          "name": "creator",
          "type": "address"
        },
        {
          "indexed": false,
          "internalType": "string",
          "name": "title",
          "type": "string"
        },
        {
          "indexed": false,
          "internalType": "string",
          "name": "githubUrl",
          "type": "string"
        },
        {
          "indexed": false,
          "internalType": "uint256",
          "name": "reward",
          "type": "uint256"
        }
      ],
      "name": "BountyCreated",
      "type": "event"
    },
    {
      "inputs": [
        {
          "internalType": "uint256",
          "name": "_bountyId",
          "type": "uint256"
        }
      ],
      "name": "approveBounty",
      "outputs": [],
      "stateMutability": "nonpayable",
      "type": "function"
    },
    {
      "inputs": [
        {
          "internalType": "uint256",
          "name": "",
          "type": "uint256"
        }
      ],
      "name": "bounties",
      "outputs": [
        {
          "internalType": "uint256",
          "name": "id",
          "type": "uint256"
        },
        {
          "internalType": "address",
          "name": "creator",
          "type": "address"
        },
        {
          "internalType": "string",
          "name": "title",
          "type": "string"
        },
        {
          "internalType": "string",
          "name": "description",
          "type": "string"
        },
        {
          "internalType": "string",
          "name": "githubUrl",
          "type": "string"
        },
        {
          "internalType": "uint256",
          "name": "reward",
          "type": "uint256"
        },
        {
          "internalType": "enum BonusEscrow.Status",
          "name": "status",
          "type": "uint8"
        },
        {
          "internalType": "address",
          "name": "claimant",
          "type": "address"
        },
        {
          "internalType": "string",
          "name": "solutionGithubUrl",
          "type": "string"
        }
      ],
      "stateMutability": "view",
      "type": "function"
    },
    {
      "inputs": [
        {
          "internalType": "uint256",
          "name": "_bountyId",
          "type": "uint256"
        }
      ],
      "name": "claimBounty",
      "outputs": [],
      "stateMutability": "nonpayable",
      "type": "function"
    },
    {
      "inputs": [
        {
          "internalType": "string",
          "name": "_title",
          "type": "string"
        },
        {
          "internalType": "string",
          "name": "_description",
          "type": "string"
        },
        {
          "internalType": "string",
          "name": "_githubUrl",
          "type": "string"
        }
      ],
      "name": "createBounty",
      "outputs": [],
      "stateMutability": "payable",
      "type": "function"
    },
    {
      "inputs": [],
      "name": "getAllBounties",
      "outputs": [
        {
          "components": [
            {
              "internalType": "uint256",
              "name": "id",
              "type": "uint256"
            },
            {
              "internalType": "address",
              "name": "creator",
              "type": "address"
            },
            {
              "internalType": "string",
              "name": "title",
              "type": "string"
            },
            {
              "internalType": "string",
              "name": "description",
              "type": "string"
            },
            {
              "internalType": "string",
              "name": "githubUrl",
              "type": "string"
            },
            {
              "internalType": "uint256",
              "name": "reward",
              "type": "uint256"
            },
            {
              "internalType": "enum BonusEscrow.Status",
              "name": "status",
              "type": "uint8"
            },
            {
              "internalType": "address",
              "name": "claimant",
              "type": "address"
            },
            {
              "internalType": "string",
              "name": "solutionGithubUrl",
              "type": "string"
            }
          ],
          "internalType": "struct BonusEscrow.Bounty[]",
          "name": "",
          "type": "tuple[]"
        }
      ],
      "stateMutability": "view",
      "type": "function"
    },
    {
      "inputs": [
        {
          "internalType": "uint256",
          "name": "_bountyId",
          "type": "uint256"
        }
      ],
      "name": "getBountyStatus",
      "outputs": [
        {
          "internalType": "enum BonusEscrow.Status",
          "name": "",
          "type": "uint8"
        }
      ],
      "stateMutability": "view",
      "type": "function"
    },
    {
      "inputs": [],
      "name": "nextBountyId",
      "outputs": [
        {
          "internalType": "uint256",
          "name": "",
          "type": "uint256"
        }
      ],
      "stateMutability": "view",
      "type": "function"
    },
    {
      "inputs": [],
      "name": "owner",
      "outputs": [
        {
          "internalType": "address",
          "name": "",
          "type": "address"
        }
      ],
      "stateMutability": "view",
      "type": "function"
    },
    {
      "inputs": [
        {
          "internalType": "uint256",
          "name": "_bountyId",
          "type": "uint256"
        },
        {
          "internalType": "string",
          "name": "_solutionGithubUrl",
          "type": "string"
        }
      ],
      "name": "submitSolution",
      "outputs": [],
      "stateMutability": "nonpayable",
      "type": "function"
    }
  ],
  "bytecode": "0x608060405234801561001057600080fd5b50336000806101000a81548173ffffffffffffffffffffffffffffffffffffffff021916908373ffffffffffffffffffffffffffffffffffffffff16021790555060006001819055506121be806100686000396000f3fe6080604052600436106100865760003560e01c8063d1d2ba8f11610059578063d1d2ba8f14610133578063d3b5c0161461014f578063dc2f874414610178578063e74205f6146101bd578063fd14fad4146101fa57610086565b806344021ad71461008b57806381b2948f146100b45780638da5cb5b146100dd578063ab643c0714610108575b600080fd5b34801561009757600080fd5b506100b260048036038101906100ad9190611302565b610225565b005b3480156100c057600080fd5b506100db60048036038101906100d69190611302565b61038a565b005b3480156100e957600080fd5b506100f2610623565b6040516100ff9190611370565b60405180910390f35b34801561011457600080fd5b5061011d610647565b60405161012a919061164c565b60405180910390f35b61014d600480360381019061014891906117a3565b610a69565b005b34801561015b57600080fd5b506101766004803603810190610171919061184a565b610da6565b005b34801561018457600080fd5b5061019f600480360381019061019a9190611302565b610efc565b6040516101b49998979695949392919061190e565b60405180910390f35b3480156101c957600080fd5b506101e460048036038101906101df9190611302565b6111b7565b6040516101f191906119b7565b60405180910390f35b34801561020657600080fd5b5061020f611228565b60405161021c91906119d2565b60405180910390f35b6000600281111561023957610238611465565b5b6002600083815260200190815260200160002060060160009054906101000a900460ff16600281111561026f5761026e611465565b5b146102af576040517f08c379a00000000000000000000000000000000000000000000000000000000081526004016102a690611a39565b60405180910390fd5b60016002600083815260200190815260200160002060060160006101000a81548160ff021916908360028111156102e9576102e8611465565b5b0217905550336002600083815260200190815260200160002060060160016101000a81548173ffffffffffffffffffffffffffffffffffffffff021916908373ffffffffffffffffffffffffffffffffffffffff1602179055503373ffffffffffffffffffffffffffffffffffffffff16817fbf59c0d059a57ebf273b4b1643599fc4b48cf5effdd82113a740ed64d262ec9360405160405180910390a350565b60008054906101000a900473ffffffffffffffffffffffffffffffffffffffff1673ffffffffffffffffffffffffffffffffffffffff163373ffffffffffffffffffffffffffffffffffffffff1614610418576040517f08c379a000000000000000000000000000000000000000000000000000000000815260040161040f90611acb565b60405180910390fd5b6001600281111561042c5761042b611465565b5b6002600083815260200190815260200160002060060160009054906101000a900460ff16600281111561046257610461611465565b5b146104a2576040517f08c379a000000000000000000000000000000000000000000000000000000000815260040161049990611b37565b60405180910390fd5b600060026000838152602001908152602001600020905060008160060160019054906101000a900473ffffffffffffffffffffffffffffffffffffffff169050600082600501549050600073ffffffffffffffffffffffffffffffffffffffff168273ffffffffffffffffffffffffffffffffffffffff160361055a576040517f08c379a000000000000000000000000000000000000000000000000000000000815260040161055190611ba3565b60405180910390fd5b60028360060160006101000a81548160ff0219169083600281111561058257610581611465565b5b02179055508173ffffffffffffffffffffffffffffffffffffffff166108fc829081150290604051600060405180830381858888f193505050501580156105cd573d6000803e3d6000fd5b508173ffffffffffffffffffffffffffffffffffffffff16847f3461928d99d63b85da6f68825e7685d5fdde0b639ba59e41bfc043a7282794c48360405161061591906119d2565b60405180910390a350505050565b60008054906101000a900473ffffffffffffffffffffffffffffffffffffffff1681565b6060600060038054905067ffffffffffffffff81111561066a57610669611678565b5b6040519080825280602002602001820160405280156106a357816020015b61069061122e565b8152602001906001900390816106885790505b50905060005b600380549050811015610a615760026000600383815481106106ce576106cd611bc3565b5b9060005260206000200154815260200190815260200160002060405180610120016040529081600082015481526020016001820160009054906101000a900473ffffffffffffffffffffffffffffffffffffffff1673ffffffffffffffffffffffffffffffffffffffff1673ffffffffffffffffffffffffffffffffffffffff16815260200160028201805461076390611c21565b80601f016020809104026020016040519081016040528092919081815260200182805461078f90611c21565b80156107dc5780601f106107b1576101008083540402835291602001916107dc565b820191906000526020600020905b8154815290600101906020018083116107bf57829003601f168201915b505050505081526020016003820180546107f590611c21565b80601f016020809104026020016040519081016040528092919081815260200182805461082190611c21565b801561086e5780601f106108435761010080835404028352916020019161086e565b820191906000526020600020905b81548152906001019060200180831161085157829003601f168201915b5050505050815260200160048201805461088790611c21565b80601f01602080910402602001604051908101604052809291908181526020018280546108b390611c21565b80156109005780601f106108d557610100808354040283529160200191610900565b820191906000526020600020905b8154815290600101906020018083116108e357829003601f168201915b50505050508152602001600582015481526020016006820160009054906101000a900460ff16600281111561093857610937611465565b5b600281111561094a57610949611465565b5b81526020016006820160019054906101000a900473ffffffffffffffffffffffffffffffffffffffff1673ffffffffffffffffffffffffffffffffffffffff1673ffffffffffffffffffffffffffffffffffffffff1681526020016007820180546109b490611c21565b80601f01602080910402602001604051908101604052809291908181526020018280546109e090611c21565b8015610a2d5780601f10610a0257610100808354040283529160200191610a2d565b820191906000526020600020905b815481529060010190602001808311610a1057829003601f168201915b505050505081525050828281518110610a4957610a48611bc3565b5b602002602001018190525080806001019150506106a9565b508091505090565b60008054906101000a900473ffffffffffffffffffffffffffffffffffffffff1673ffffffffffffffffffffffffffffffffffffffff163373ffffffffffffffffffffffffffffffffffffffff1614610af7576040517f08c379a0000000000000000000000000000000000000000000000000000000008152600401610aee90611acb565b60405180910390fd5b60003411610b3a576040517f08c379a0000000000000000000000000000000000000000000000000000000008152600401610b3190611c9e565b60405180910390fd5b600060016000815480929190610b4f90611ced565b9190505590506040518061012001604052808281526020013373ffffffffffffffffffffffffffffffffffffffff16815260200185815260200184815260200183815260200134815260200160006002811115610baf57610bae611465565b5b8152602001600073ffffffffffffffffffffffffffffffffffffffff16815260200160405180602001604052806000815250815250600260008381526020019081526020016000206000820151816000015560208201518160010160006101000a81548173ffffffffffffffffffffffffffffffffffffffff021916908373ffffffffffffffffffffffffffffffffffffffff1602179055506040820151816002019081610c5d9190611ee1565b506060820151816003019081610c739190611ee1565b506080820151816004019081610c899190611ee1565b5060a0820151816005015560c08201518160060160006101000a81548160ff02191690836002811115610cbf57610cbe611465565b5b021790555060e08201518160060160016101000a81548173ffffffffffffffffffffffffffffffffffffffff021916908373ffffffffffffffffffffffffffffffffffffffff160217905550610100820151816007019081610d219190611ee1565b5090505060038190806001815401808255809150506001900390600052602060002001600090919091909150553373ffffffffffffffffffffffffffffffffffffffff16817e26518e234dedc787bbadc9bb934c92fe94158272cc2c9bba9b23f3010a8d15868534604051610d9893929190611fb3565b60405180910390a350505050565b60016002811115610dba57610db9611465565b5b6002600084815260200190815260200160002060060160009054906101000a900460ff166002811115610df057610def611465565b5b14610e30576040517f08c379a0000000000000000000000000000000000000000000000000000000008152600401610e279061206a565b60405180910390fd5b3373ffffffffffffffffffffffffffffffffffffffff166002600084815260200190815260200160002060060160019054906101000a900473ffffffffffffffffffffffffffffffffffffffff1673ffffffffffffffffffffffffffffffffffffffff1614610ed4576040517f08c379a0000000000000000000000000000000000000000000000000000000008152600401610ecb906120fc565b60405180910390fd5b80600260008481526020019081526020016000206007019081610ef79190611ee1565b505050565b60026020528060005260406000206000915090508060000154908060010160009054906101000a900473ffffffffffffffffffffffffffffffffffffffff1690806002018054610f4b90611c21565b80601f0160208091040260200160405190810160405280929190818152602001828054610f7790611c21565b8015610fc45780601f10610f9957610100808354040283529160200191610fc4565b820191906000526020600020905b815481529060010190602001808311610fa757829003601f168201915b505050505090806003018054610fd990611c21565b80601f016020809104026020016040519081016040528092919081815260200182805461100590611c21565b80156110525780601f1061102757610100808354040283529160200191611052565b820191906000526020600020905b81548152906001019060200180831161103557829003601f168201915b50505050509080600401805461106790611c21565b80601f016020809104026020016040519081016040528092919081815260200182805461109390611c21565b80156110e05780601f106110b5576101008083540402835291602001916110e0565b820191906000526020600020905b8154815290600101906020018083116110c357829003601f168201915b5050505050908060050154908060060160009054906101000a900460ff16908060060160019054906101000a900473ffffffffffffffffffffffffffffffffffffffff169080600701805461113490611c21565b80601f016020809104026020016040519081016040528092919081815260200182805461116090611c21565b80156111ad5780601f10611182576101008083540402835291602001916111ad565b820191906000526020600020905b81548152906001019060200180831161119057829003601f168201915b5050505050905089565b600060015482106111fd576040517f08c379a00000000000000000000000000000000000000000000000000000000081526004016111f490612168565b60405180910390fd5b6002600083815260200190815260200160002060060160009054906101000a900460ff169050919050565b60015481565b60405180610120016040528060008152602001600073ffffffffffffffffffffffffffffffffffffffff168152602001606081526020016060815260200160608152602001600081526020016000600281111561128e5761128d611465565b5b8152602001600073ffffffffffffffffffffffffffffffffffffffff168152602001606081525090565b6000604051905090565b600080fd5b600080fd5b6000819050919050565b6112df816112cc565b81146112ea57600080fd5b50565b6000813590506112fc816112d6565b92915050565b600060208284031215611318576113176112c2565b5b6000611326848285016112ed565b91505092915050565b600073ffffffffffffffffffffffffffffffffffffffff82169050919050565b600061135a8261132f565b9050919050565b61136a8161134f565b82525050565b60006020820190506113856000830184611361565b92915050565b600081519050919050565b600082825260208201905092915050565b6000819050602082019050919050565b6113c0816112cc565b82525050565b6113cf8161134f565b82525050565b600081519050919050565b600082825260208201905092915050565b60005b8381101561140f5780820151818401526020810190506113f4565b60008484015250505050565b6000601f19601f8301169050919050565b6000611437826113d5565b61144181856113e0565b93506114518185602086016113f1565b61145a8161141b565b840191505092915050565b7f4e487b7100000000000000000000000000000000000000000000000000000000600052602160045260246000fd5b600381106114a5576114a4611465565b5b50565b60008190506114b682611494565b919050565b60006114c6826114a8565b9050919050565b6114d6816114bb565b82525050565b6000610120830160008301516114f560008601826113b7565b50602083015161150860208601826113c6565b5060408301518482036040860152611520828261142c565b9150506060830151848203606086015261153a828261142c565b91505060808301518482036080860152611554828261142c565b91505060a083015161156960a08601826113b7565b5060c083015161157c60c08601826114cd565b5060e083015161158f60e08601826113c6565b506101008301518482036101008601526115a9828261142c565b9150508091505092915050565b60006115c283836114dc565b905092915050565b6000602082019050919050565b60006115e28261138b565b6115ec8185611396565b9350836020820285016115fe856113a7565b8060005b8581101561163a578484038952815161161b85826115b6565b9450611626836115ca565b925060208a01995050600181019050611602565b50829750879550505050505092915050565b6000602082019050818103600083015261166681846115d7565b905092915050565b600080fd5b600080fd5b7f4e487b7100000000000000000000000000000000000000000000000000000000600052604160045260246000fd5b6116b08261141b565b810181811067ffffffffffffffff821117156116cf576116ce611678565b5b80604052505050565b60006116e26112b8565b90506116ee82826116a7565b919050565b600067ffffffffffffffff82111561170e5761170d611678565b5b6117178261141b565b9050602081019050919050565b82818337600083830152505050565b6000611746611741846116f3565b6116d8565b90508281526020810184848401111561176257611761611673565b5b61176d848285611724565b509392505050565b600082601f83011261178a5761178961166e565b5b813561179a848260208601611733565b91505092915050565b6000806000606084860312156117bc576117bb6112c2565b5b600084013567ffffffffffffffff8111156117da576117d96112c7565b5b6117e686828701611775565b935050602084013567ffffffffffffffff811115611807576118066112c7565b5b61181386828701611775565b925050604084013567ffffffffffffffff811115611834576118336112c7565b5b61184086828701611775565b9150509250925092565b60008060408385031215611861576118606112c2565b5b600061186f858286016112ed565b925050602083013567ffffffffffffffff8111156118905761188f6112c7565b5b61189c85828601611775565b9150509250929050565b6118af816112cc565b82525050565b600082825260208201905092915050565b60006118d1826113d5565b6118db81856118b5565b93506118eb8185602086016113f1565b6118f48161141b565b840191505092915050565b611908816114bb565b82525050565b600061012082019050611924600083018c6118a6565b611931602083018b611361565b8181036040830152611943818a6118c6565b9050818103606083015261195781896118c6565b9050818103608083015261196b81886118c6565b905061197a60a08301876118a6565b61198760c08301866118ff565b61199460e0830185611361565b8181036101008301526119a781846118c6565b90509a9950505050505050505050565b60006020820190506119cc60008301846118ff565b92915050565b60006020820190506119e760008301846118a6565b92915050565b7f426f756e7479206973206e6f74206f70656e20666f7220636c61696d732e0000600082015250565b6000611a23601e836118b5565b9150611a2e826119ed565b602082019050919050565b60006020820190508181036000830152611a5281611a16565b9050919050565b7f4f6e6c79206f776e65722063616e2063616c6c20746869732066756e6374696f60008201527f6e00000000000000000000000000000000000000000000000000000000000000602082015250565b6000611ab56021836118b5565b9150611ac082611a59565b604082019050919050565b60006020820190508181036000830152611ae481611aa8565b9050919050565b7f426f756e747920686173206e6f74206265656e20636c61696d65642e00000000600082015250565b6000611b21601c836118b5565b9150611b2c82611aeb565b602082019050919050565b60006020820190508181036000830152611b5081611b14565b9050919050565b7f4e6f206f6e652068617320636c61696d6564207468697320626f756e74792e00600082015250565b6000611b8d601f836118b5565b9150611b9882611b57565b602082019050919050565b60006020820190508181036000830152611bbc81611b80565b9050919050565b7f4e487b7100000000000000000000000000000000000000000000000000000000600052603260045260246000fd5b7f4e487b7100000000000000000000000000000000000000000000000000000000600052602260045260246000fd5b60006002820490506001821680611c3957607f821691505b602082108103611c4c57611c4b611bf2565b5b50919050565b7f426f756e7479206d757374206861766520612072657761726400000000000000600082015250565b6000611c886019836118b5565b9150611c9382611c52565b602082019050919050565b60006020820190508181036000830152611cb781611c7b565b9050919050565b7f4e487b7100000000000000000000000000000000000000000000000000000000600052601160045260246000fd5b6000611cf8826112cc565b91507fffffffffffffffffffffffffffffffffffffffffffffffffffffffffffffffff8203611d2a57611d29611cbe565b5b600182019050919050565b60008190508160005260206000209050919050565b60006020601f8301049050919050565b600082821b905092915050565b600060088302611d977fffffffffffffffffffffffffffffffffffffffffffffffffffffffffffffffff82611d5a565b611da18683611d5a565b95508019841693508086168417925050509392505050565b6000819050919050565b6000611dde611dd9611dd4846112cc565b611db9565b6112cc565b9050919050565b6000819050919050565b611df883611dc3565b611e0c611e0482611de5565b848454611d67565b825550505050565b600090565b611e21611e14565b611e2c818484611def565b505050565b5b81811015611e5057611e45600082611e19565b600181019050611e32565b5050565b601f821115611e9557611e6681611d35565b611e6f84611d4a565b81016020851015611e7e578190505b611e92611e8a85611d4a565b830182611e31565b50505b505050565b600082821c905092915050565b6000611eb860001984600802611e9a565b1980831691505092915050565b6000611ed18383611ea7565b9150826002028217905092915050565b611eea826113d5565b67ffffffffffffffff811115611f0357611f02611678565b5b611f0d8254611c21565b611f18828285611e54565b600060209050601f831160018114611f4b5760008415611f39578287015190505b611f438582611ec5565b865550611fab565b601f198416611f5986611d35565b60005b82811015611f8157848901518255600182019150602085019450602081019050611f5c565b86831015611f9e5784890151611f9a601f891682611ea7565b8355505b6001600288020188555050505b505050505050565b60006060820190508181036000830152611fcd81866118c6565b90508181036020830152611fe181856118c6565b9050611ff060408301846118a6565b949350505050565b7f426f756e747920686173206e6f74206265656e20636c61696d6564206f72206960008201527f7320616c726561647920706169642e0000000000000000000000000000000000602082015250565b6000612054602f836118b5565b915061205f82611ff8565b604082019050919050565b6000602082019050818103600083015261208381612047565b9050919050565b7f4f6e6c792074686520636c61696d616e742063616e207375626d69742061207360008201527f6f6c7574696f6e2e000000000000000000000000000000000000000000000000602082015250565b60006120e66028836118b5565b91506120f18261208a565b604082019050919050565b60006020820190508181036000830152612115816120d9565b9050919050565b7f426f756e747920646f6573206e6f742065786973740000000000000000000000600082015250565b60006121526015836118b5565b915061215d8261211c565b602082019050919050565b6000602082019050818103600083015261218181612145565b905091905056fea264697066735822122067bf8a47aa930a567d6ccae4fd2400674b763369884b20d170d6a90d0dac111664736f6c63430008180033",
  "linkReferences": {},
  "deployedLinkReferences": {}
}