{
  "_format": "hh-sol-artifact-1",
  "contractName": "BonusEscrow",
  "sourceName": "contracts/BonusEscrow.sol",
  "abi": [
    {
      "inputs": [],
      "stateMutability": "nonpayable",
      "type": "constructor"
    },
    {
      "inputs": [],
      "name": "deposit",
      "outputs": [],
      "stateMutability": "payable",
      "type": "function"
    },
    {
      "inputs": [],
      "name": "owner",
      "outputs": [
        {
          "internalType": "address",
          "name": "",
          "type": "address"
        }
      ],
      "stateMutability": "view",
      "type": "function"
    }
  ],
  "bytecode": "0x608060405234801561001057600080fd5b50336000806101000a81548173ffffffffffffffffffffffffffffffffffffffff021916908373ffffffffffffffffffffffffffffffffffffffff16021790555061010b806100606000396000f3fe60806040526004361060265760003560e01c80638da5cb5b14602b578063d0e30db0146051575b600080fd5b348015603657600080fd5b50603d6059565b6040516048919060bc565b60405180910390f35b6057607d565b005b60008054906101000a900473ffffffffffffffffffffffffffffffffffffffff1681565b565b600073ffffffffffffffffffffffffffffffffffffffff82169050919050565b600060a882607f565b9050919050565b60b681609f565b82525050565b600060208201905060cf600083018460af565b9291505056fea2646970667358221220e1fa813f576be2f046719d8aab6e19eb06b954fd07597b5f58ea2ace77c3ca5564736f6c63430008180033",
  "linkReferences": {},
  "deployedLinkReferences": {}
}